:020000040800F2
:1000000020380020290200083102000833020008CD
:10001000350200083702000839020008000000001D
:100020000000000000000000000000009101000836
:100030003D02000800000000D50100088D080008FE
:10004000430200084302000843020008430200087C
:10005000430200084302000843020008430200086C
:10006000430200084302000843020008430200085C
:10007000430200084302000843020008430200084C
:10008000430200084302000843020008430200083C
:10009000430200084302000843020008430200082C
:1000A000430200084302000843020008430200081C
:1000B000430200084302000843020008430200080C
:1000C00043020008430200084302000843020008FC
:1000D00043020008A9090008110A0008790A00086B
:1000E00043020008430200084302000800F002F83F
:1000F00000F03AF80AA090E8000C82448344AAF188
:100100000107DA4501D100F02FF8AFF2090EBAE885
:100110000F0013F0010F18BFFB1A43F0010318473B
:1001200080290000A0290000103A24BF78C878C1B7
:10013000FAD8520724BF30C830C144BF04680C60ED
:10014000704700000023002400250026103A28BF35
:1001500078C1FBD8520728BF30C148BF0B60704739
:100160001FB51FBD10B510BD00F049F9114603B40D
:1001700000F0CFFE03BCFFF7F3FF00F0D3FE00F06A
:1001800063F903B4FFF7EEFF03BC00F06BF9000066
:10019000224B19680868B0E8F00F80F30988BFF3B4
:1001A0006F8F4FF0000080F311884EF00D0E7047F6
:1001B0000000000006480068006880F3088862B606
:1001C00061B6BFF34F8FBFF36F8F00DF00BF00BF7B
:1001D00008ED00E0EFF30980BFF36F8F0F4B1A6853
:1001E00020E9F00F106008B54FF0100080F311887F
:1001F000BFF34F8FBFF36F8F01F0DCFD4FF00000B6
:1002000080F31188BDE8084019680868B0E8F00F6D
:1002100080F30988BFF36F8F704700BF680000202C
:10022000EFF3058070470000094880470948004700
:10023000FEE7FEE7FEE7FEE7FEE7FEE7FEE7FEE796
:10024000FEE7FEE704480549054A064B70470000F3
:1002500049090008ED000008203200202038002065
:100260002034002020340020032A40F2308010F097
:10027000030C00F0158011F8013BBCF1020F624441
:1002800098BF11F801CB00F8013B38BF11F8013BD2
:10029000A2F1040298BF00F801CB38BF00F8013B7F
:1002A00011F0030300F07980083AC0F0088051F89B
:1002B000043B083A51F804CBA0E80810F5E7121DFA
:1002C0005CBF51F8043B40F8043BAFF30080D20719
:1002D00024BF11F8013B11F801CB48BF11F8012BE5
:1002E00024BF00F8013B00F801CB48BF00F8012B08
:1002F000704702F0FF0343EA032242EA024200F0A1
:1003000002B84FF000020429C0F0128010F0030C74
:1003100000F01B80CCF1040CBCF1020F18BF00F8F8
:10032000012BA8BF20F8022BA1EB0C0100F00DB8A7
:100330005FEAC17C24BF00F8012B00F8012B48BF05
:1003400000F8012B70474FF0000200B513469446A9
:100350009646203922BFA0E80C50A0E80C50B1F11D
:100360002001BFF4F7AF090728BFA0E80C5048BF31
:100370000CC05DF804EB890028BF40F8042B08BFCF
:10038000704748BF20F8022B11F0804F18BF00F8CB
:10039000012B704770477047704710B5203AC0F086
:1003A0000B80B1E81850203AA0E81850B1E8185076
:1003B000A0E81850BFF4F5AF5FEA027C24BFB1E8B3
:1003C0001850A0E8185044BF18C918C0BDE8104024
:1003D0005FEA827C24BF51F8043B40F8043B08BF2D
:1003E0007047D20728BF31F8023B48BF11F8012BF4
:1003F00028BF20F8023B48BF00F8012B7047754624
:1004000000F02CF8AE4605006946534620F0070080
:10041000854618B020B5FFF715FFBDE820404FF026
:1004200000064FF000074FF000084FF0000B21F0DE
:100430000701AC46ACE8C009ACE8C009ACE8C009AB
:10044000ACE8C0098D46704710B50446AFF3008094
:100450002046BDE81040FFF794BE000000487047FA
:10046000BC31002001491820ABBEFEE72600020087
:1004700070472DE9F04102460025002600200023A8
:100480000024002791F803C00CF00F0591F803C079
:100490000CF0100CBCF1000F03D091F802C04CEA34
:1004A000050591F800C0BCF1000F31D014680020A0
:1004B0002BE04FF0010C0CFA00F3B1F800C00CEA8D
:1004C00003069E4220D183004FF00F0C0CFA03F775
:1004D000BC4305FA03FC4CEA040491F803C0BCF1E8
:1004E000280F06D14FF0010C0CFA00FCC2F814C022
:1004F0000AE091F803C0BCF1480F05D14FF0010CA0
:100500000CFA00FCC2F810C0401C0828D1D31460BB
:10051000B1F800C0BCF1FF0F34DD546800202EE0BC
:1005200000F1080C4FF0010808FA0CF3B1F800C014
:100530000CEA03069E4221D183004FF00F0C0CFA07
:1005400003F7BC4305FA03FC4CEA040491F803C02A
:10055000BCF1280F05D100F1080C08FA0CF8C2F81C
:10056000148091F803C0BCF1480F07D100F1080CCA
:100570004FF0010808FA0CF8C2F81080401C082857
:10058000CED35460BDE8F08129B1064AD269024356
:10059000044BDA6104E0034AD2698243014BDA6119
:1005A000704700000010024029B1064A92690243D8
:1005B000044B9A6104E0034A92698243014B9A61B9
:1005C000704700000010024030B5002100220024D6
:1005D00000232D4D6D6805F00C0121B1042905D0D3
:1005E000082923D105E0294D056022E0274D05604B
:1005F0001FE0254D6D6805F47012234D6D6805F4FC
:100600008034022505EB92421CB9214D554305600B
:100610000BE01D4D6D6805F400351DB11C4D5543B3
:10062000056002E0194D5543056002E0174D056075
:1006300000BF00BF144D6D6805F0F0010909154DAC
:100640006B5C0568DD4045600F4D6D6805F4E06149
:10065000090A104D6B5C4568DD4085600A4D6D6888
:1006600005F46051C90A0B4D6B5C4568DD40C560FF
:10067000054D6D6805F44041890B074D6B5CC568FD
:10068000B5FBF3F5056130BD0010024000127A00A1
:1006900000093D0020000020300000201CB5012092
:1006A00001F014FC0C49086000200121034680225F
:1006B000CDE9001009A10B4801F09CFE00200121AA
:1006C00003468022CDE9001007A1094801F092FEFF
:1006D00001F01AFB1CBD0000000000205461736B88
:1006E00020310000F50600085461736B20320000D1
:1006F0005D07000810B504464FF0FF310C48006854
:1007000001F0B0FD0BA000F07BFB41F2883001F05E
:1007100039FA0DA000F074FB00231A46194604486C
:10072000006801F091FC4FF47A7001F02BFA10BDD3
:10073000000000205461736B20312074616B6520D0
:100740004D757465780A00005461736B2031206721
:10075000697665204D757465780A000010B5044609
:100760004FF0FF310948006801F07CFD08A000F05F
:1007700047FB00231A4619460448006801F064FC50
:100780004FF47A7001F0FEF910BD00000000002067
:100790005461736B20322074616B65204D757465F4
:1007A000780A000010B500F001F810BD0CB500206B
:1007B000019000903348006840F48030314908606F
:1007C00000BF3048006800F4003000900198401CE1
:1007D0000190009818B90198B0F5A06FF1D129489F
:1007E000006800F4003010B10120009001E000200A
:1007F00000900098012843D12348006840F0100081
:10080000214908600846006820F003000860084697
:10081000006840F0020008601A48406819494860C2
:100820000846406848600846406840F48060486078
:100830000846406820F47C1048600846406840F450
:10084000E81048600846006840F08070086000BF0B
:100850000C48006800F000700028F9D00948406892
:1008600020F00300074948600846406840F0020055
:10087000486000BF0348406800F00C000828F9D128
:100880000CBD0000001002400020024010B54FF0E7
:10089000E020006901F010FE012801D001F0FCFA0F
:1008A00010BD000010B5002100200022214B5B6824
:1008B00003F00C0121B1042906D0082928D107E052
:1008C0001D4B1E4C236027E01B4B1C4C236023E078
:1008D000184B5B6803F47010164B5B6803F48032AE
:1008E000022303EB904022B9154B4343134C236082
:1008F0000DE0104B5B6803F4003323B1104B43430E
:100900000E4C236003E00C4B43430C4C236003E08C
:10091000094B0A4C236000BF00BF064B5B68C3F362
:100920000313084CE15C054B1B68CB40034C236070
:1009300010BD00000010024000127A0034000020B8
:1009400000093D003800002010B51348006840F051
:1009500001001149086008464068104908400E49E6
:100960004860084600680E4908400B490860084680
:10097000006820F4802008600846406820F4FE00EB
:1009800048604FF41F008860FFF70CFF4FF00060D5
:100990000449086010BD0000001002400000FFF88C
:1009A000FFFFF6FE08ED00E010B540F225511348B8
:1009B00000F04FF900B3114800F006FA1049087032
:1009C000084600780A280BD0084600780D490E4AE0
:1009D000126888540C480068401C0B4908600BE002
:1009E00001200A490860002107480068401E054AA6
:1009F000115400200449086010BD00000038014077
:100A00000C000020BC000020140000201800002072
:100A100010B540F22551134800F01BF900B31148FE
:100A200000F0D2F910490870084600780A280BD067
:100A3000084600780D490E4A126888540C48006830
:100A4000401C0B4908600BE001200A4908600021A6
:100A500007480068401E054A1154002004490860F8
:100A600010BD0000004400400C000020BC0000202D
:100A7000140000201800002010B540F22551134842
:100A800000F0E7F800B3114800F09EF91049087033
:100A9000084600780A280BD0084600780D490E4A0F
:100AA000126888540C480068401C0B4908600BE031
:100AB00001200A490860002107480068401E054AD5
:100AC000115400200449086010BD00000048004097
:100AD0000C000020BC0000201400002018000020A2
:100AE00021B1828942F40052828104E082894DF66C
:100AF000FF731A408281704710B586B0044645489E
:100B00000068454988420FD1012144F20400FFF7F3
:100B10004BFD4FF400704149088040004049088077
:100B20004048414908602DE03A4800683F49884202
:100B300011D101210420FFF737FD01214804FFF7FF
:100B400023FD0420354908800820354908803548B0
:100B50003549086016E02F4800683549884211D1B0
:100B600001210820FFF720FD01218804FFF70CFD7B
:100B70004FF48060294908804000294908802D48A9
:100B80002949086018208DF8170024480088ADF81E
:100B9000140003208DF8160005A923480068FFF70C
:100BA00068FC04208DF817001D480088ADF814007B
:100BB00003208DF8160005A91B480068FFF759FCB3
:100BC00001940020ADF810000C20ADF80E000020BC
:100BD000ADF80C00ADF80A00ADF8080001A90D4809
:100BE000006800F085F8012240F2255109480068AC
:100BF00000F059F8252000F00EF9262000F00BF93E
:100C0000272000F008F9012102480068FFF768FF7B
:100C100006B010BD08000020003801401C00002074
:100C20001E00002000080140040000200044004095
:100C300000480040000C014002460020B1F5007F52
:100C400000D100BF13880B400BB1012000E0002051
:100C5000704770B50246002400230025002040F6AE
:100C60006A16B14200D100BFC1F3421501F01F0363
:100C7000012606FA03F3012D02D19689334006E0DE
:100C8000022D02D1168A334001E0968A33400C12BD
:100C9000012606FA04F41688344013B10CB1012081
:100CA00000E0002070BDF0B50346002400260025BA
:100CB000002040F66A17B94200D100BF1846C1F3C0
:100CC000421401F01F06012707FA06F5012C01D195
:100CD0000C3004E0022C01D1103000E014301AB1C5
:100CE00007682F43076002E00768AF430760F0BD65
:100CF0002DE9F04786B005460E460024A24600BF07
:100D0000A1460027B08900B100BF2F462C8A4CF6BF
:100D1000FF700440F08804432C82AC894EF6F31037
:100D20000440B08831890843718908430443AC8189
:100D3000AC8A4FF6FF400440B0890443AC8201A85E
:100D4000FFF742FC1F48874202D1DDF810A001E006
:100D5000DDF80CA0A88900F4004040B10AEBCA00FD
:100D600000EB0A1031684900B0FBF1F807E00AEB2C
:100D7000CA0000EB0A1031688900B0FBF1F864206A
:100D8000B8FBF0F004012009642101FB1089A88957
:100D900000F4004040B1322000EBC900B0FBF1F09C
:100DA00000F00700044308E0322000EB0910642142
:100DB000B0FBF1F000F00F0004432C8106B0BDE859
:100DC000F08700000038014001468888C0F3080021
:100DD0007047000010B5044621460648006800F040
:100DE0000BF800BF802103480068FFF725FF0028AB
:100DF000F8D010BD08000020C1F3080282807047BF
:100E000010B5044603E014F8010BFFF7E3FF207868
:100E10000028F8D110BD00280DDB00BF00BF00F096
:100E20001F02012191404209920002F1E022C2F822
:100E3000001100BF00BF704710B5044600F07FF8F6
:100E400038B100F067F820B14FF0FF31206801F0B1
:100E500009FA10BD70B50546286800F063FE00244D
:100E60000BE0084951F824102868884204D100207A
:100E7000044941F8240002E0641C052CF1D300BFB2
:100E800070BD00002408002070B5044600202060DA
:100E9000002514E0154850F8250078B905EB8500C9
:100EA000134A02EB0011012001F021F80F4941F82B
:100EB0002500084650F82500206002E06D1C052D35
:100EC000E8D300BF206830B900F039F818B101202C
:100ED00000F0FCFF2060002080F3118800BF206834
:100EE00008B9002070BD0120FCE7000024080020A4
:100EF0009406002010B5044600F021F840B100F03F
:100F000009F828B100231A461946206801F09CF818
:100F100010BD704700BFEFF3058008B9012070478E
:100F20000020FCE710B5FFF70FFDFFF7BBFC4FF407
:100F30001650FFF7E1FDFFF7B1FB002010BD10B523
:100F400001F0BAFA022801D1012010BD0020FCE70F
:100F50002DE9F04105460E46204807682048006804
:100F6000001D00F02BFD681CD8B9D6B11D4948689A
:100F70001B49096888601A4982680968CA6018496B
:100F80000968091D8268516015490968091D816059
:100F9000144A134909684A6111460968491C1160DD
:100FA0001AE07C190E4800684460BC4207D20C4825
:100FB0000168091D0C48006800F03DFD0CE0084880
:100FC0000168091D0948006800F035FD08480068FF
:100FD000844201D206480460BDE8F0817C00002014
:100FE00068000020E0300020700000206C0000202D
:100FF0009800002010B5044600F038FD3048006825
:10100000401C2F4908602F48006840B92D480460F3
:101010000846006801280DD100F0ECF90AE02A48E2
:10102000006838B927480068C06AE16A884201D878
:101030002448046025480068401C2449086008468C
:10104000006860642249E06A0968884202D9204940
:10105000E06A0860E16A01EB81011E4A02EB81014E
:101060004868A0608268E260211D826851608160EA
:10107000E16A01EB8101174A02EB81026261E16AD8
:1010800001EB8101134A52F82110491CE26A02EB7C
:101090008202104B43F8221000F0FAFC0A48006864
:1010A00068B108480068C06AE16A884207D24FF018
:1010B000805009490860BFF34F8FBFF36F8F10BD99
:1010C00078000020680000208400002094000020A8
:1010D00080000020302C002004ED00E008B500F076
:1010E000C5FC0E480068A8B90D4800F094FC0D48F6
:1010F00000F091FC0A480C4908600A480B49086056
:1011000000200B4B0B4A10210090052000F02DFF12
:101110000249086000F0BCFC08BD0000B0000020DF
:10112000F430002008310020A8000020AC0000208E
:101130001C3100206C31002010B516E000F096FC48
:101140000C48C068C468201D00F038FC0A480068DC
:10115000401E0949086009480068401E07490860A8
:1011600000F096FC204600F05FF804480068002874
:10117000E4D110BDCC3000207800002074000020A5
:1011800070B504460D46206C70B1216CE0680144D6
:10119000E160D4E90210884201D32168E160284669
:1011A000226CE168FFF760F870BD2DE9F04104465C
:1011B0000F4615464FF00008A66B206C48B9206812
:1011C00000282CD1A06801F055FA80460020A060CC
:1011D00025E07DB93946226C6068FFF745F8216C3F
:1011E000606808446060D4E90101884217D3206830
:1011F000606014E03946226CE068FFF735F8216C36
:10120000E068411AE1602168E068884203D2216CFD
:10121000A068411AE160022D01D106B1761E701C52
:10122000A0634046BDE8F08110B5044694F859002B
:1012300030B9206B00F03CFC204600F039FC06E0A1
:1012400094F85900012802D1204600F031FC10BD6D
:1012500001464A6A22B10A6B1268C2F1380000E006
:10126000002070470146084A126812680AB9012234
:1012700000E000220A600A6822B9034A1268D268B4
:10128000106800E000207047A800002030B54FF43F
:101290000053154800F007042CB1C01D20F00700D2
:1012A000114C041B1B1B0246104C226000240F4DE6
:1012B0006C60D018083820F007000D4C2060002426
:1012C0000B4D2D686C600A4D2D682C601146441A38
:1012D0004C60074C24680C60064D4C682C60064D31
:1012E0004C682C6030BD0000300C0020480000200D
:1012F00050000020580000205400002000BFFFF7DD
:101300001BFF064800680128F9D94FF080500449B6
:101310000860BFF34F8FBFF36F8FF0E7302C0020D2
:1013200004ED00E010B5044654B10020A060206038
:101330000021E16000231A461946204600F084FE91
:1013400010BD2DE9F04106460D4617469846069C0D
:101350000DB9246000E02760E66325640121204682
:1013600000F022FE84F84C80BDE8F0812DE9F05FAA
:1013700081460E4690469A460A9F0C9C4FEA880189
:10138000A522206BFEF7B5FFA8F10100216B01EB50
:10139000800B2BF0070B7EB1002507E0715D04F197
:1013A00034004155705D00B902E06D1C102DF5D37D
:1013B00000BF002143200155382F00D33727E762B3
:1013C000E764201D00F034FB04F1180000F030FB4E
:1013D0002461C7F13800A06164625246494658460C
:1013E00000F0DAFA20600B9808B10B980460BDE8B1
:1013F000F09F000010B5002407E004EB84010F4AC1
:1014000002EB810000F007FB641C382CF5D30C487C
:1014100000F001FB0B4800F0FEFA0B4800F0FBFA6D
:101420000A4800F0F8FA0A4800F0F5FA04480949B9
:10143000086004480849086010BD0000302C0020F6
:1014400090300020A4300020B8300020CC300020A4
:10145000E03000206C0000207000002010B5014634
:10146000164800E0006803688B42FBD302464368DD
:1014700013448B4204D143684C68234443600146C3
:101480000A464B6813440468A34211D10C4C03680C
:101490002468A34208D04B680468646823444B6006
:1014A00003681B680B6005E0054B1B680B6001E0DF
:1014B00003680B60884200D0016010BD4800002026
:1014C000500000202DE9F04104460D4616461F4607
:1014D0004FF0000865602461B5420CD8F01BA1698B
:1014E000884202D34FF0010811E0211D094800682D
:1014F00000F0A1FA0BE0BE4204D2BD4202D34FF08D
:10150000010804E0211D0448006800F094FA4046F8
:10151000BDE8F081AC000020A800002070B50546B1
:1015200000F0A4FAA86B08B9012400E0002400F040
:10153000AFFA204670BD70B5054600F097FAA86B6B
:10154000E96B884201D1012400E0002400F0A0FAF8
:10155000204670BD70B505460E460E480068C0684E
:10156000C468201D00F02AFA94F8280000F0040056
:1015700028B132462946204600F0D0F805E094F81C
:10158000280000F0FE0084F828002046216A8847E1
:1015900070BD0000A800002070B586B077E002980A
:1015A000002805DA03AED6E90020B168904700BFF5
:1015B000029800286BDB049C606908B9012000E0F8
:1015C000002010B9201D00F0F9F901A800F0D2F8B0
:1015D000054602980A2858D2DFE800F05705072E82
:1015E000364706082F3700BF00BF00BF94F8280019
:1015F00040F0010084F828000398A269811803468E
:101600002A462046FFF75EFFA8B194F8280000F0B4
:10161000040038B10398A26981182A46204600F0D8
:101620007DF805E094F8280000F0FE0084F828001A
:101630002046216A884729E000BF94F8280000F07E
:10164000FE0084F8280021E000BF94F8280040F054
:10165000010084F828000398A061A06941192B4675
:101660002A462046FFF72EFF10E094F8280000F0ED
:10167000020018B9204600F01BFA05E094F8280093
:1016800000F0FE0084F8280000E000BF00BF002248
:1016900002A90448006800F063FD00287FF47FAFD2
:1016A00006B070BDB0000020F8B505460C4600F04D
:1016B00079FB684600F05EF80646009820BB44B906
:1016C000B54206D801F010F931462846FFF742FF2F
:1016D0001CE03CB10E480068006808B9012000E039
:1016E00000200446A91B22460A48006800F024FA9C
:1016F00001F0FAF850B94FF0805007490860BFF385
:101700004F8FBFF36F8F01E001F0EEF8F8BD0000DE
:10171000AC000020B000002004ED00E070B50446ED
:101720000D46164604E0A06905442046216A884714
:10173000A06941192B4632462046FFF7C3FE002818
:10174000F1D170BD09480068006808B9012000E0C7
:10175000002020B14FF0FF300549086005E0034844
:101760000068C06800680249086070476C0000208B
:101770009800002070B5044600F0AEFE054607480C
:101780000068854204D200F00BF80120206001E0DF
:101790000020206001480560284670BDB800002088
:1017A00070B508E00D480068C06804684FF0FF316C
:1017B0002046FFF7CFFE09480068006808B90120FD
:1017C00000E000200028EDD00448056804480068C7
:1017D000024908600248056070BD0000A8000020B2
:1017E000AC00002000BF102080F31188BFF34F8FA2
:1017F000BFF36F8F00BF00BFFEE708B500BF6846AC
:10180000FFF730FD044620460099FFF74DFFFFF734
:10181000C3FEF4E770B5044600F028F994F945508A
:1018200010E0606A08B9012000E0002038B904F136
:10183000240000F0D5FF18B100F0CAF900E003E081
:10184000681E45B2002DECDC00BFFF2084F8450087
:1018500000F01EF900F00AF994F9445010E02069F4
:1018600008B9012000E0002048B904F1100000F0A0
:10187000B7FF08B100F0ACF9681E45B200E001E026
:10188000002DECDC00BFFF2084F8440000F000F9DC
:1018900070BD00002DE9F04705464FF0000900F04B
:1018A00081FA3048006808B9FFF7F0FC75B105F01F
:1018B0000700C0F11008C8F1FF30A84201D2012092
:1018C00000E0002008B9454400E00025012000EBBD
:1018D000E570002841D0002D3FD0234800688542A4
:1018E0003BD8224E3046046801E0264624686068F2
:1018F000A84202D220680028F7D11A480068844222
:101900002BD0306800F10809206830606068401B07
:10191000102807D967196068401B786065603846F1
:10192000FFF79CFD104960680968081A0E490860B5
:10193000084600680E490968884203D20A480068D0
:101940000B490860606840F0004060600020206043
:1019500008480068401C0749086000F0C5FF484679
:10196000BDE8F0875000002054000020480000200F
:10197000580000205C0000200648006830B105498E
:10198000096801F15000096D491C016001480068B7
:101990007047000068000020001F4FF08073036054
:1019A000001F21F001030360001F034B0360143884
:1019B0000260203870470000E517000801460A69F8
:1019C000D1E901309860D1E901035860506888423C
:1019D00001D188685060002008611068401E1060C6
:1019E00010687047034B0360034B0B608023136048
:1019F000704700003808002094080020034B036063
:101A0000034B0B605023136070470000940A0020C2
:101A1000F00A0020704700F1080141604FF0FF31EB
:101A2000816000F10801C16001610021016070471F
:101A300000210161704710B502460B685C1C0CB9AF
:101A4000106907E002F1080000E04068446824687B
:101A50009C42FAD944684C604C68A160886041603F
:101A60000A611468641C146010BD000000BF1020DF
:101A700080F31188BFF34F8FBFF36F8F00BF034810
:101A80000068401C014908607047000064000020A5
:101A900006480068401E054908600846006820B9ED
:101AA000002080F3118800BF00BF70476400002051
:101AB00070B506463546E6B1083D2C466068C00F55
:101AC000B8B12068A8B9606820F00040606000F0FC
:101AD00069F90849606809680844064908602046B1
:101AE000FFF7BCFC04480068401C0349086000F094
:101AF000FBFE70BD540000206000002000204FF06D
:101B0000E02108618861064800684FF47A71B0FBF3
:101B1000F1F0401E4FF0E021486107200861704756
:101B20003400002070B50446254695F8460010B9EB
:101B30002846FFF7BDFF70BD2DE9F04105460E4672
:101B400017462C46FFF792FF94F94400401C10B949
:101B5000002084F8440094F94500401C10B900208E
:101B600084F84500FFF794FFA06B28B93A46314648
:101B700004F1240000F042F82046FFF74BFEBDE8D8
:101B8000F081000070B50446002544B100F00AF968
:101B900000212046FFF7DCF900F0A6FE05463DB91E
:101BA0004FF0805003490860BFF34F8FBFF36F8F32
:101BB00070BD000004ED00E00349096801600349BD
:101BC0000968416070470000900000207C00002000
:101BD00001200149086070478C00002070B505465F
:101BE0000C460548016818312846FFF724FF0121FB
:101BF0002046FFF7ADF970BD6800002070B50446BF
:101C00000E46154660680F490968C8610D4982682B
:101C100009680A620B4909681831826851600949EC
:101C2000096818318160074909688C622168491C7C
:101C300021600DB14FF0FF3629463046FFF788F995
:101C400070BD0000680000202DE9F04706460F46F1
:101C500034464FF00109002E4FD0E06CB84201D25B
:101C60003D4600E0E56CE06AA84246D0206D0128C0
:101C700043D1D4F82C80E562A06900F0004010B98F
:101C8000C5F13800A06108EB88011D4A02EB810113
:101C90006069884201D1012000E0002068B3201D66
:101CA000FFF78CFE1749E06A0968884202D9154996
:101CB000E06A0860E16A01EB8101114A02EB8101EF
:101CC0004868A0608268E260211D8268516081607E
:101CD000E16A01EB81010A4A02EB81026261E16A79
:101CE00001EB8101064A52F82110491CE26A02EB1D
:101CF0008202034B43F8221000BFBDE8F0870000CA
:101D0000302C00208000002010B586B00020059007
:101D1000049003AA04A905A8FFF764FE0022DDE9E8
:101D200004101346CDE90021029016A11748039A2A
:101D300000F096FB164908600846006808B10124C7
:101D400000E00024012C02D100F07AFE0446012CB0
:101D500014D100BF102080F31188BFF34F8FBFF361
:101D60006F8F00BF4FF0FF300A49086001200A4919
:101D7000086000200949086000F074F8084800680D
:101D800006B010BD49444C4500000000FD1200089B
:101D90009C00002098000020840000207C0000208F
:101DA000A000002002480068401C014908607047FC
:101DB000A400002070B52648006818B1012025490C
:101DC000086043E000202349086023480068046B52
:101DD0004FF0A5352068B0F1A53F0BD16068B0F198
:101DE000A53F07D1A068B0F1A53F03D1E068B0F1ED
:101DF000A53F05D01848016834310068FFF70AFE96
:101E00001648016800E0491E01EB8100144A52F8AF
:101E1000200008B9012000E000200028F3D101EBE8
:101E200081020F4B03EB820042685268426000F16E
:101E300008024368934202D1426852684260426895
:101E4000D268054B1A600548016000BF70BD0000F4
:101E5000A40000208C0000206800002080000020EA
:101E6000302C002010B50A48006840F47F00084973
:101E700008600846006840F07F400860FFF73EFEBB
:101E8000002004490860FEF795F9002010BD00000D
:101E900020ED00E06400002010B500BF102080F3AA
:101EA0001188BFF34F8FBFF36F8F00BF00F01AFB95
:101EB00018B14FF080500449086000BF002080F343
:101EC000118800BF10BD000004ED00E02DE9F041D5
:101ED00004460126002722460021012000F01CF8BC
:101EE00005462846FFF71EFA2846BDE8F0812DE991
:101EF000F84304460D4601274FF000082B46002208
:101F000011460120009400F030F806463046FFF7F5
:101F100009FA3046BDE8F8832DE9F84305460E4638
:101F200017460024F5B1601EB0FBF5F0B04219D39E
:101F300005FB06F010F1510F14D805FB06F909F165
:101F40005000FFF7A7FC044664B1A04608F1500812
:101F5000002084F846003B4642463146284600941D
:101F6000FFF7EFF92046BDE8F8832DE9F8438046F6
:101F70000D4616461C46DDF820900027B8F1000FEC
:101F80000FD074B106B165B106B955B92746012025
:101F900087F846004B463246294640460097FFF7F1
:101FA000D0F93846BDE8F8832DE9F04105460E46E4
:101FB00001272C46002C41D0E06B00283ED0B91EF2
:101FC000E06BB1FBF0F0216C884237D3FFF74EFD98
:101FD000D4E90F12206801FB0200A0600020A0637A
:101FE00020686060E06B401E226C216800FB0211DB
:101FF000E160FF2084F8440084F845009EB9206920
:1020000008B9012000E00020A8B904F1100000F098
:10201000E7FB80B14FF080500A490860BFF34F8F53
:10202000BFF36F8F07E004F11000FFF7F4FC04F139
:102030002400FFF7F0FCFFF72BFD00E000273846F7
:10204000BDE8F08104ED00E02DE9FF4383B00746D1
:1020500088461D464FF000093C4600BFFFF706FDCD
:10206000A06BE16B884201D3022D28D12A4641465C
:102070002046FFF79AF80646606A08B9012000E09A
:10208000002068B904F1240000F0AAFB88B14FF0E9
:10209000805032490860BFF34F8FBFF36F8F08E065
:1020A0003EB14FF080502D490860BFF34F8FBFF312
:1020B0006F8FFFF7EDFC012007B0BDE8F0830598B6
:1020C00018B9FFF7E5FC0020F6E7B9F1000F04D1DD
:1020D00001A8FFF771FD4FF00109FFF7D9FCFFF7E9
:1020E00061FEFFF7C3FC94F94400401C10B90020C6
:1020F00084F8440094F94500401C10B9002084F88D
:102100004500FFF7C5FC05A901A800F043F9F0B9A7
:102110002046FFF710FAA0B104F110000599FFF76F
:102120005DFD2046FFF776FB00F0DEFB002895D131
:102130004FF0805009490860BFF34F8FBFF36F8F96
:102140008CE72046FFF766FB00F0CEFB86E72046D3
:10215000FFF760FB00F0C8FB0020ADE704ED00E0F6
:102160002DE9F74183B005460F464FF000082C4695
:1021700000BFFFF77BFCA66BF6B139462046FEF7A1
:10218000FFFF701EA063206908B9012000E0002055
:1021900060B904F1100000F023FB38B14FF080501B
:1021A0002F490860BFF34F8FBFF36F8FFFF770FCAD
:1021B000012006B0BDE8F081059818B9FFF768FC6A
:1021C0000020F6E7B8F1000F04D101A8FFF7F4FCF6
:1021D0004FF00108FFF75CFCFFF7E4FDFFF746FC5A
:1021E00094F94400401C10B9002084F8440094F98C
:1021F0004500401C10B9002084F84500FFF748FC5A
:1022000005A901A800F0C6F8F0B92046FFF786F945
:10221000A0B104F124000599FFF7E0FC2046FFF788
:10222000F9FA00F061FB0028A3D14FF080500C496F
:102230000860BFF34F8FBFF36F8F9AE72046FFF719
:10224000E9FA00F051FB94E72046FFF7E3FA00F0CB
:102250004BFB2046FFF762F900288AD00020A8E750
:1022600004ED00E02DE9F34182B0054600272C463D
:10227000B84600BFFFF7FAFBA66BFEB1701EA06365
:10228000206810B9FFF778FBA060206908B9012029
:1022900000E0002060B904F1100000F0A1FA38B1AC
:1022A0004FF080503A490860BFF34F8FBFF36F8FF4
:1022B000FFF7EEFB012004B0BDE8F081039818B9E8
:1022C000FFF7E6FB0020F6E71FB96846FFF774FC4E
:1022D0000127FFF7DDFBFFF765FDFFF7C7FB94F96B
:1022E0004400401C10B9002084F8440094F94500D3
:1022F000401C10B9002084F84500FFF7C9FB03A972
:10230000684600F047F840BB2046FFF707F9F0B1F8
:10231000206838B9FFF7AAFBA06800F0F5F98046FD
:10232000FFF7B6FB04F124000399FFF757FC2046A2
:10233000FFF770FA00F0D8FA00289BD14FF08050D8
:1023400013490860BFF34F8FBFF36F8F92E72046AA
:10235000FFF760FA00F0C8FA8CE72046FFF75AFA58
:1023600000F0C2FA2046FFF7D9F8002882D0B8F171
:10237000000F0BD0FFF77AFB2046FEF769FF0646F9
:102380003146A068FFF760FCFFF782FB002092E770
:1023900004ED00E070B506460C46FFF767FB1348F6
:1023A00002687068131A2068401C08B9002519E0FB
:1023B0000F4930680968884206D07068904203D897
:1023C0000125002020600DE02068984207D9206890
:1023D000C01A20603046FFF7EFFB002502E0002026
:1023E00020600125FFF754FB284670BD7C000020CB
:1023F000900000202DE9FF4F85B0804689461746A2
:10240000DDE912ABB800FFF745FA064676B15C206D
:10241000FFF740FA04462CB15C212046FDF793FFFC
:10242000266304E03046FFF743FB00E000248CB154
:10243000002084F85900CDE900ABCDE902403A46CE
:1024400049464046089BFEF791FF2046FEF7D2FD25
:10245000012501E04FF0FF35284609B0BDE8F08FB7
:102460002DE9F04F85B00746884691469A46DDE94A
:102470000EB6109CCCB1C6B125465C212846FDF7AE
:1024800062FF2E63022085F85900002004A95346FC
:102490004A46CDE900B1CDE9025041463846FEF743
:1024A00065FF2846FEF7A6FD01E000200490049891
:1024B00005B0BDE8F08F00000549096809B90120A1
:1024C00005E00449096809B9022000E000207047CE
:1024D00084000020A4000020014908687047000023
:1024E0007C0000202DE9F0410027574800680028B3
:1024F0007DD156480068451C544805608DB9544844
:10250000D0F8008053480068514908605148C0F82D
:10251000008051480068401C4F490860FFF712F9DD
:1025200000BF4E480068854275D300BF4848006828
:10253000006808B9012000E0002020B14FF0FF3012
:102540004649086066E042480068C068C46866683A
:10255000B54202D2414806605CE06069D4E90212EB
:102560008A60D4E902214A60211D42688A4201D171
:10257000E1684160002262610168491E0160A06A51
:1025800098B1A06AD4E907128A60D4E907214A60A9
:1025900004F1180142688A4201D1216A4160002297
:1025A000A2620168491E016000BF2D49E06A096806
:1025B000884202D92A49E06A0860E16A01EB810198
:1025C000284A02EB81014868A0608268E260211D10
:1025D000826851608160E16A01EB8101214A02EB6E
:1025E00081026261E16A01EB81011E4A00E022E0A2
:1025F00052F82110491CE26A02EB8202194B43F89F
:1026000022101949E06A0968C96A88428ED90127EF
:102610008CE700E000BF14480068C06A00EB80004F
:10262000104951F82000012800D901270F480068FF
:1026300000B1012704E00E480068401C0C49086006
:102640003846BDE8F0810000A40000207C00002096
:102650006C000020700000209000002098000020F6
:1026600080000020302C0020680000208C0000201A
:102670008800002070B505462C460026002D3CD071
:10268000206D401E2065E16CE06A884235D0206DE7
:1026900098BB201DFFF792F9E06CE062E06AC0F1A0
:1026A0003800A0611649E06A0968884202D91449D5
:1026B000E06A0860E16A01EB8101124A02EB8101E4
:1026C0004868A0608268E260211D82685160816074
:1026D000E16A01EB81010B4A02EB81026261E16A6E
:1026E00001EB8101074A52F82110491CE26A02EB12
:1026F0008202044B43F822100126304670BD0000D0
:1027000080000020302C002070B505462C460026A5
:10271000002D5CD02F49E06A0968C96A88424FD20F
:10272000A06900F0004028B92A480068C06AC0F1DA
:102730003800A061E16A01EB8101274A02EB8101C7
:102740006069884201D1012000E0002088B3201D8B
:10275000FFF734F91F480068C06AE0621F49E06A69
:102760000968884202D91D49E06A0860E16A01EB04
:102770008101194A02EB81014868A0608268E26029
:10278000211D826851608160E16A01EB8101124A7A
:1027900002EB81026261E16A01EB81010E4A52F8AB
:1027A0002110491CE26A02EB82020B4B43F8221013
:1027B00004E0FFE707480068C06AE062012606E01F
:1027C0000449E06C0968C96A884200D20126304693
:1027D00070BD000068000020302C00208000002028
:1027E00070B50346D868C168886AD1E90745A56015
:1027F000D1E90754656001F118044568A54201D18B
:102800000C6A446000258D620468641E04603048D0
:10281000006800283CD14869D1E90245A560D1E9AA
:10282000025465600C1D4568A54201D1CC68446026
:1028300000254D610468641E0460264CC86A246843
:10284000A04202D9234CC86A2060CC6A04EB8404FD
:10285000214D05EB8404606888608568CD600C1D9F
:1028600085686C608460CC6A04EB84041A4D05EBC7
:1028700084054D61CC6A04EB8404174D55F824405F
:10288000641CCD6A05EB8505134E46F8254010E023
:10289000124C6068C86185680D6201F11804856892
:1028A0006C6084600D4D8D622C462468641C2C6025
:1028B00000BF0B4CC86A2468E46AA04204D9012214
:1028C0000120084C206000E00022104670BD00008E
:1028D000A400002080000020302C0020B830002010
:1028E000680000208C00002070B500240026FFF74F
:1028F000BDF84A480068401E48490860084600681C
:1029000000287DD146480068002879D05AE0454823
:10291000C068C468A06AD4E907128A60D4E90721B4
:102920004A6004F1180142688A4201D1216A41607B
:102930000022A2620168491E01606069D4E90212A6
:102940008A60D4E902214A60211D42688A4201D18D
:10295000E1684160002262610168491E01603249FC
:10296000E06A0968884202D92F49E06A0860E16A92
:1029700001EB81012D4A02EB81014868A060826869
:10298000E260211D826851608160E16A01EB810192
:10299000264A02EB81026261E16A01EB8101234A6E
:1029A00052F82110491CE26A02EB82021F4B43F8E5
:1029B00022101F49E06A0968C96A884202D30120CF
:1029C0001C4908601748006808B9012000E0002091
:1029D00000289CD00CB1FEF7B5FE1748056865B11C
:1029E00000BFFFF77FFD10B10120124908606D1E86
:1029F000002DF6D10020104908600E48006800E064
:102A000008E038B1012630070C490860BFF34F8F4A
:102A1000BFF36F8FFFF73CF8304670BDA400002075
:102A200078000020B830002080000020302C0020EA
:102A3000680000208C0000208800002004ED00E0E9
:102A400010B586B00024FEF749FB10480068D0B1ED
:102A500000200590049003AA04A905A8FEF7CEFF64
:102A60002822DDE904100023CDE90021029008A10D
:102A70000948039AFFF7F4FC084908600846006813
:102A800000B1012400BF204606B010BDB0000020F8
:102A9000546D722053766300FB170008B4000020C9
:102AA000C02A000800000020BC0000002801000827
:102AB0007C2B0008BC0000206437000044010008A3
:102AC000000000000000000000380140000000008D
:102AD00000000000000000000000000000000000F6
:102AE00000000000010203040102030406070809B4
:102AF0000204060800A24A040000000000000000D2
:102B0000010203040607080900000000000000009D
:102B100000000000000000000000000000000000B5
:102B200000000000AAAAAAAA0000000000000000FD
:102B30000000000000000000000000000000000095
:102B40000000000000000000000000000000000085
:102B50000000000000000000000000000000000075
:102B6000370000000000000000000000000000002E
:0C2B700000000000000000000000000059
:04000005080000ED02
:00000001FF
