:020000040800F2
:10000000780600208901000891010008930100088A
:100010009501000897010008990100080000000000
:100020000000000000000000000000009B0100082C
:100030009D010008000000009F010008A1010008C8
:10004000A3010008A3010008A3010008A301000800
:10005000A3010008A3010008A3010008A3010008F0
:10006000A3010008A3010008A3010008A3010008E0
:10007000A3010008A3010008A3010008A3010008D0
:10008000A3010008A3010008A3010008A3010008C0
:10009000A3010008A3010008A3010008A3010008B0
:1000A000A3010008A3010008A3010008A3010008A0
:1000B000A3010008A3010008A3010008A301000890
:1000C000A3010008A3010008A3010008A301000880
:1000D000A3010008A3010008A3010008A301000870
:1000E000A3010008A3010008A301000800F002F822
:1000F00000F03AF80AA090E8000C82448344AAF188
:100100000107DA4501D100F02FF8AFF2090EBAE885
:100110000F0013F0010F18BFFB1A43F0010318473B
:100120001C0800003C080000103A24BF78C878C1C1
:10013000FAD8520724BF30C830C144BF04680C60ED
:10014000704700000023002400250026103A28BF35
:1001500078C1FBD8520728BF30C148BF0B60704739
:100160001FB51FBD10B510BD00F031F81146FFF7E7
:10017000F7FF00F0CFFB00F04FF803B4FFF7F2FFFA
:1001800003BC00F057F800000948804709480047C1
:10019000FEE7FEE7FEE7FEE7FEE7FEE7FEE7FEE737
:1001A000FEE7FEE704480549054A064B7047000094
:1001B000B5080008ED00000878000020780600204F
:1001C000780200207802002070477047704775461B
:1001D00000F02CF8AE4605006946534620F00700B3
:1001E000854618B020B5FFF7DDFFBDE820404FF091
:1001F00000064FF000074FF000084FF0000B21F011
:100200000701AC46ACE8C009ACE8C009ACE8C009DD
:10021000ACE8C0098D46704710B50446AFF30080C6
:100220002046BDE81040FFF7A8BF00000048704717
:100230001400002001491820ABBEFEE72600020092
:100240007047002107E0002200E0521C42F6FF2325
:100250009A42FAD3491C8142F5D370472DE9F04107
:10026000024600250026002000230024002791F8E4
:1002700003C00CF00F0591F803C00CF0100CBCF19A
:10028000000F03D091F802C04CEA050591F800C0B8
:10029000BCF1000F31D0146800202BE04FF0010CAE
:1002A0000CFA00F3B1F800C00CEA03069E4220D11C
:1002B00083004FF00F0C0CFA03F7BC4305FA03FC64
:1002C0004CEA040491F803C0BCF1280F06D14FF0AA
:1002D000010C0CFA00FCC2F814C00AE091F803C04B
:1002E000BCF1480F05D14FF0010C0CFA00FCC2F82C
:1002F00010C0401C0828D1D31460B1F800C0BCF174
:10030000FF0F34DD546800202EE000F1080C4FF0A0
:10031000010808FA0CF3B1F800C00CEA03069E428B
:1003200021D183004FF00F0C0CFA03F7BC4305FA00
:1003300003FC4CEA040491F803C0BCF1280F05D17A
:1003400000F1080C08FA0CF8C2F8148091F803C008
:10035000BCF1480F07D100F1080C4FF0010808FA72
:100360000CF8C2F81080401C0828CED35460BDE8B9
:10037000F08170B502460024002500230020958AF4
:10038000138B1B0445EA030626F07F4404EA0106AA
:100390008E4201D1012000E0002070BD21B1028811
:1003A00042F00102028004E002884FF6FE731A4018
:1003B0000280704721B1028842F48072028004E01A
:1003C00002884FF6FF631A400280704721B102880D
:1003D00042F40072028004E002884FF6FF531A4094
:1003E000028070472DE9F04385B004460D46002693
:1003F000B1460427DFF8CC80A6884FF6C0700640CF
:10040000684600F079F9DDF808802F48B8FBF0F075
:100410001FFA80F946EA0906A68020884FF6FE7189
:100420000840208000262949286888420CD828687E
:100430004000B8FBF0F087B2042F00DA04273E43F7
:1004400009F10100208427E0E8884BF6FF7188421B
:1004500006D1286800EB4000B8FBF0F087B209E055
:10046000286800EBC00101EB0010B8FBF0F087B288
:1004700047F48047C7F30B0008B947F0010747F47A
:10048000004006434FF4967009FB00F04FF47A7178
:1004900090FBF1F0401C2084A683208840F00100EE
:1004A000208026884FF6F5300640A88869890843E1
:1004B00006432680A88929890843208105B0BDE824
:1004C000F083000000127A0040420F00A086010075
:1004D00012B141F0010102E04FF6FE7319400182B2
:1004E000704701827047000010B50446012113488F
:1004F000FFF760FF00BF12491048FFF73AFF0028DE
:10050000F9D000224E210D48FFF7E2FF00BF0D4950
:100510000A48FFF72EFF0028F9D021460748FFF7C9
:10052000E0FF00BF0749891C0448FFF722FF0028AD
:10053000F8D001210148FFF749FF10BD00540040E9
:100540000100030082000700F8B50446002504F00E
:10055000F006F02000EA041746F00C008DF80000C9
:1005600046F008008DF8010047F00C008DF80200FD
:1005700047F008008DF8030000BF05E01DF80500F6
:10058000FFF7B2FF681CC5B2042DF7DBF8BDF8B564
:100590000446002504F0F006F02000EA041746F0B7
:1005A0000D008DF8000046F009008DF8010047F0BD
:1005B0000D008DF8020047F009008DF8030000BF20
:1005C00005E01DF80500FFF78FFF681CC5B2042D7C
:1005D000F7DBF8BD10B5044603E02078FFF7D7FF3E
:1005E000641C20780028F8D110BD000000B585B04B
:1005F0000121082000F070F80121480500F05CF8A6
:10060000C020ADF810001C208DF8130003208DF8D9
:10061000120004A90F48FFF721FE0020ADF80A00E0
:100620004FF48040ADF80C000B4800904BF6FF7083
:10063000ADF806000020ADF80400ADF808006946EA
:100640000648FFF7CFFE01210448FFF7A7FE05B0DB
:1006500000BD0000000C0140A086010000540040D5
:1006600010B53320FFF770FF0A20FFF7EAFD3220B4
:10067000FFF76AFF3220FFF7E4FD2820FFF764FF51
:100680003220FFF7DEFD0120FFF75EFF3220FFF78B
:10069000D8FD0620FFF758FF3220FFF7D2FD0C20CF
:1006A000FFF752FF3220FFF7CCFD0220FFF74CFF8F
:1006B0003220FFF7C6FD10BD29B1064AD2690243B8
:1006C000044BDA6104E0034AD2698243014BDA61E8
:1006D000704700000010024029B1064A92690243A7
:1006E000044B9A6104E0034A92698243014B9A6188
:1006F000704700000010024030B5002100220024A5
:1007000000232D4D6D6805F00C0121B1042905D0A1
:10071000082923D105E0294D056022E0274D056019
:100720001FE0254D6D6805F47012234D6D6805F4CA
:100730008034022505EB92421CB9214D55430560DA
:100740000BE01D4D6D6805F400351DB11C4D554382
:10075000056002E0194D5543056002E0174D056044
:1007600000BF00BF144D6D6805F0F0010909154D7B
:100770006B5C0568DD4045600F4D6D6805F4E06118
:10078000090A104D6B5C4568DD4085600A4D6D6857
:1007900005F46051C90A0B4D6B5C4568DD40C560CE
:1007A000054D6D6805F44041890B074D6B5CC568CC
:1007B000B5FBF3F5056130BD0010024000127A0070
:1007C00000093D00000000201000002010B500F0DE
:1007D00001F810BD0CB5002001900090334800686E
:1007E00040F480303149086000BF3048006800F4B0
:1007F000003000900198401C0190009818B90198B1
:10080000B0F5A06FF1D12948006800F4003010B1B4
:100810000120009001E0002000900098012843D1C1
:100820002348006840F0100021490860084600682D
:1008300020F0030008600846006840F002000860ED
:100840001A484068194948600846406848600846A8
:10085000406840F4806048600846406820F47C109E
:1008600048600846406840F4E81048600846006860
:1008700040F08070086000BF0C48006800F0007015
:100880000028F9D00948406820F003000749486073
:100890000846406840F00200486000BF03484068D6
:1008A00000F00C000828F9D10CBD00000010024037
:1008B0000020024010B51348006840F001001149C3
:1008C000086008464068104908400E4948600846DC
:1008D00000680E4908400B4908600846006820F48B
:1008E000802008600846406820F4FE0048604FF40D
:1008F0001F008860FFF76AFF4FF00060044908603E
:1009000010BD0000001002400000FFF8FFFFF6FEDF
:1009100008ED00E0FFF76AFEFFF7A2FE02A0FFF776
:1009200059FE00BFFEE70000454C454354524F4E70
:100930004943532050544954000000005C0900080A
:1009400000000020140000002801000870090008C1
:1009500014000020640600004401000800000000AC
:100960000102030401020304060708090204060841
:04000005080000ED02
:00000001FF
